:020000040800F2
:1000000070050020010100083B1500081F140008BE
:1000100039150008910200086D1A00080000000060
:100020000000000000000000000000007315000840
:100030009302000800000000711500087515000803
:100040001B0100081B0100081B0100081B01000820
:100050001B0100081B0100081B0100081B01000810
:100060001B0100081B0100081B0100081B01000800
:100070001B0100081B0100081B0100081B010008F0
:100080001B0100081B0100081B0100081B010008E0
:100090001B0100081B0100081B0100081B010008D0
:1000A0001116000835160008291600081D1600084C
:1000B0001B010008411600081B0100081B01000875
:1000C0001B0100081B0100081B0100081B010008A0
:1000D0001B010008611A00081B0100081B01000831
:1000E0001B0100081B0100081B010008DFF80CD0F1
:1000F00000F0BCF800480047AD1A00087005002069
:100100000648804706480047FEE7FEE7FEE7FEE7B1
:10011000FEE7FEE7FEE7FEE7FEE7FEE7C91500089B
:10012000ED000008D2B201E000F8012B491EFBD21D
:1001300070470022F6E710B513460A4604461946F2
:10014000FFF7F0FF204610BD30B480EA010202F054
:10015000004530F0004221F0004013D090B1C30DB3
:10016000D40DC2F31601C0F31600E41A41F40001E5
:1001700040F400027D34914201D3641C00E0490048
:10018000002C02DA30BC002070474FF4000000233E
:10019000914201D3891A034340084FEA4101F7D144
:1001A00051B1914202D14FF0004105E002D24FF02F
:1001B000010101E06FF0010103EBC450284430BCA1
:1001C00000F01CB801F0004330B421F0004150EAC7
:1001D000010206D00A0DA2F56072C1F31301002AD4
:1001E00002DC30BC00207047440F44EAC104C10067
:1001F000E01830BC00EBC250AFF300800029A8BF6C
:100200007047401C490008BF20F00100704710B43F
:10021000B0FA80FC00FA0CF050EA010404BF10BCF4
:10022000704749B1CCF1200421FA04F411FA0CF121
:1002300018BF012121430843A3EB0C01CB1D4FEA5A
:1002400000614FEA102042BF002010BC704700EB55
:10025000C35010440029A4BF10BC7047401C490083
:1002600008BF20F0010010BC70470000064C074D8D
:1002700006E0E06840F0010394E807009847103476
:10028000AC42F6D3FFF736FF701B0008901B000846
:10029000FEE7704710B590F821100024022903D022
:1002A0000421816301243DE001680A6822F00E0206
:1002B0000A6001680A6822F001020A601A4A0168AD
:1002C000914201D1012121E0174A1432914201D11A
:1002D00010211BE0144A2832914201D1891515E002
:1002E000114A3C32914201D189140FE00E4A50323A
:1002F000914202D14FF4803108E00B4A64329142BE
:1003000002D14FF4801101E04FF08071064A083AA3
:100310005160012180F82110002180F82010416BEC
:1003200001B18847204610BD080002402DE9F84F72
:10033000DFF8B891002409F1040A0AF1040B2346FE
:100340000F270BF1040EC9E00125A5402A40AA425F
:100350007DD1674ED1F804C0ACEB0608B44532D06D
:1003600014DCBCF1030F3AD009DCBCF1000F2AD039
:10037000BCF1010F1CD0BCF1020F31D11DE0BCF16A
:10038000110F17D0BCF1120F2AD119E0B8F5881F50
:1003900019D006DCB8F5803F15D0B8F5801F1FD105
:1003A00011E0B8F5001F0ED0B8F5041F18D10AE00F
:1003B000CB6815E0CB681B1D12E0CB6808330FE05B
:1003C000CB680C330CE08B682BB1012B4FF008038A
:1003D00003D0456104E0042302E0056100E000234E
:1003E000FF2A01D8064601E000F104064FEA840521
:1003F00001D9A5F12005D6F8008007FA05FC28EA06
:100400000C0803FA05F548EA0508C6F800804D68AF
:10041000ED0062D5374DAE6946F00106AE61AD69BB
:1004200024F0030605F001050095334D06EB050C9D
:10043000DCF80850A607360F07FA06F825EA080583
:10044000DFF8B880404503D14FF0000817E044E0E2
:10045000DFF8AC80404502D14FF001080FE0DFF833
:10046000A480404502D14FF0020808E0DFF89880F0
:10047000404502D14FF0030801E04FF0040808FAAC
:1004800006F848EA0508CCF808804D68D9F80060FD
:10049000ED034D4601D5164300E096432E604D68AE
:1004A000DAF80060AD03554601D5164300E09643E7
:1004B0002E604D68DBF80060ED025D4601D5164305
:1004C00000E096432E604D68DEF80060AD02754690
:1004D00001D5164300E096432E60641C0D682A4641
:1004E000E5407FF431AFBDE8F88F00000004014023
:1004F00000001110001002400000014000080140FF
:10050000000C0140001001400014014001488068C7
:1005100070470000400000200248816802781144C2
:100520008160704740000020074810B5016841F025
:1005300010010160032000F075F8002000F006F8BB
:1005400000F024F8002010BD0020024070B50D4DD1
:1005500004464FF47A712878B1FBF0F00A49096833
:10056000B1FBF0F000F0ECFA48B9102C07D20022F1
:100570002146501E00F036F800206C6070BD01204E
:1005800070BD0000400000204C0000200C4808B561
:10059000816941F001018161816901F001010091EE
:1005A000C16941F08051C161C06900F08050009084
:1005B0000448416821F0E06141F00071416008BDEC
:1005C0000010024000000140002809DB00F01F027B
:1005D000012191404009800000F1E020C0F80011A5
:1005E00070470000F0B40E4B1B680C46C3F30223A7
:1005F000C3F10705042D00D90425191D072901D2CF
:10060000002300E0DB1E012606FA05F1491E214009
:1006100099409E40761E16403143F0BC01F027BA47
:100620000CED00E0064900F0070208684FF6FF03F2
:10063000184040EA0220034A104308607047000057
:100640000CED00E00000FA052DE9F0470F4605002B
:1006500061D0434E306800F00700B84209D23068DC
:1006600020F0070038433060306800F00700B842DF
:1006700051D128683B4C810712D5400703D56068EB
:1006800040F4E06060602878000703D5606840F4BB
:10069000605060606068A96820F0F0000843606006
:1006A0002878C00728D06868012810D0216802285F
:1006B00010D0890700292EDA616821F00301014377
:1006C0006160FFF723FF804641F288390DE0216821
:1006D0008903EFE78901EDE7FFF718FFA0EB0801B9
:1006E000494502D90320BDE8F0876068696800F0D9
:1006F0000C00B0EB810FEFD1306800F00700B8427A
:100700000BD9306820F0070038433060306800F0C3
:100710000700B84201D00120E5E72878400705D559
:100720006068E96820F4E0600843606028780007AA
:1007300006D56068296920F4605040EAC100606015
:1007400000F038F86168084AC1F30311515CC840F1
:100750000649086006480068FFF7F8FE0020C2E777
:100760000020024000100240581B00084C000020EE
:10077000440000200448054900684968044AC1F360
:100780000221515CC84070474C000020001002401C
:10079000681B00080448054900684968044AC1F319
:1007A000C221515CC84070474C000020001002403C
:1007B000681B000812A185B00FC98DE80F0014A0B6
:1007C000144A006804905168134801F00C03042B8C
:1007D00010D0082B0ED1C1F38343C9031DF80300C9
:1007E0000AD5516804AAC1F34041515C0A4A5043FA
:1007F000B0FBF1F005B0704708494843FAE7000044
:1008000002030405060708090A0B0C0D0E0F101051
:10081000010200000010024000127A0000093D00B1
:100820002DE9F84F040070D02078C04DC00749D0A2
:100830006868C0F38100012807D06868C0F38100B0
:10084000022809D16868C00306D52868800339D515
:1008500060680028E7D035E06068B0F5803F0BD0D5
:1008600010B1B0F5A02F11D0286820F48030286096
:10087000286820F4802002E0286840F48030286056
:10088000606890B1FFF742FE06460AE0286840F42F
:1008900080202860F0E700BFFFF738FE801B642847
:1008A00073D828688003F7D50CE0FFF72FFE0646C3
:1008B00005E000BFFFF72AFE801B6428F0D82868F7
:1008C0008003F7D420789A4E80074FF001094FF04B
:1008D000000839D5686810F00C0F07D06868C0F3BD
:1008E0008100022809D16868C00306D428688007FF
:1008F00014D52069012808D110E02069B0B1C6F8EC
:100900000090FFF703FE074605E00AE1FFF7FEFD52
:10091000C01B0228C4D828688007F7D528686169F9
:1009200020F0F80040EAC10028600DE0C6F8008021
:10093000FFF7ECFD074604E0FFF7E8FDC01B0228C7
:1009400023D828688007F7D4207800072CD5794869
:10095000A169D9B1C0F80090FFF7D8FD074604E0BF
:10096000FFF7D4FDC01B02280FD8686A8007F7D5AF
:1009700071484FF4FA510068B0FBF1F0009000BFED
:100980000098411E0091FAD20EE080E0C0F800808D
:10099000FFF7BCFD074604E0FFF7B8FDC01B0228C7
:1009A00075D8686A8007F7D42078400760D5E86971
:1009B0000027C00008D4E86940F08050E861E86989
:1009C000012700F0805000905C480168C90513D4ED
:1009D0000168834641F480710160FFF797FD82460C
:1009E00006E000BFFFF792FDA0EB0A0064284ED896
:1009F000DBF80000C005F5D5E06801280AD008B191
:100A0000052813D0286A20F001002862286A20F007
:100A1000040002E0286A40F001002862E06841F228
:100A2000883B98B1FFF772FD82460BE0286A40F0E0
:100A300004002862EEE700BFFFF768FDA0EB0A01A3
:100A400059455AD8286A8007F6D50CE0FFF75EFDB5
:100A5000824605E0FFF75AFDA0EB0A0159454CD844
:100A6000286A8007F6D41FB1E86920F08050E86159
:100A7000E06988B36968C1F38101022944D0022882
:100A8000C6F8608004D0FFF741FD044638E034E04A
:100A9000FFF73CFD074604E0FFF738FDC01B0228C6
:100AA0002BD828688001F7D4206AB0F5803F05D1A3
:100AB0006868A16820F4003008436860D4E9080140
:100AC0000843696821F4741108436860C6F86090AF
:100AD000FFF71CFD044606E025E000BFFFF716FD0A
:100AE000001B022809D828688001F7D51BE000BF49
:100AF000FFF70CFD001B022802D90320BDE8F88F88
:100B000028688001F4D40EE00128F7D06868226AD2
:100B100000F48031914204D1616A00F4701088427F
:100B200001D00120EAE70020E8E7000000100240C1
:100B300000004242800442424C000020007000400D
:100B400010B5401EB0F1807F01D3012010BD4FF0E1
:100B5000E02460610F21601700F089FF0020A06190
:100B600007202061002010BD7047704770B590F8D5
:100B70003C20012A19D0012400F83C4F0222427087
:100B800050F83C3C5A689D6822F070060A68496833
:100B9000324325F0800529435A6050F83C2C91607F
:100BA000447000210170084670BD022070BD10B570
:100BB000040003D094F83D0010B107E0012010BDFF
:100BC000002084F83C00204600F00CF8022084F855
:100BD0003D00211D206800F039FD012084F83D0012
:100BE000002010BD08B50068174988422AD117486F
:100BF000816941F4006181618069002200F4006034
:100C0000009011461820FFF7EDFC1820FFF7DCFCE0
:100C1000002211461920FFF7E5FC1920FFF7D4FC4C
:100C2000002211461A20FFF7DDFC1A20FFF7CCFC4A
:100C3000002211461B20FFF7D5FCBDE808401B2011
:100C4000FFF7C2BC08BD0000002C014000100240AC
:100C50000168CA6842F00102CA600068816801F058
:100C60000701062903D0016841F00101016000205D
:100C7000704770B5044690F83C00012817D0012554
:100C800084F83C50022084F83D002068826822F0FD
:100C9000770222F47F4282600868502830D00DDC51
:100CA00020284DD005DC98B310283BD148E0022025
:100CB00070BD302844D0402834D139E0602828D095
:100CC000702806D0B0F5805F2CD0B0F5005F29D138
:100CD0000AE0CB68D1E90121206800F0FAFC206825
:100CE000816841F0770109E0CB68D1E901212068F2
:100CF00000F0EFFC2068816841F48041816011E0E0
:100D0000CA684968206800F099FD5021206807E012
:100D100016E0CA684968206800F0A1FD60212068DB
:100D200000F0E1FC84F83D50002084F83C0070BDE8
:100D3000CA684968206800F081FD40212068EFE71B
:100D4000226801461046EBE72DE9F0410D4604000C
:100D500003D094F83D0018B108E00120BDE8F0810F
:100D6000002084F83C00204600F03AF8022084F885
:100D70003D002068816844F2070291438160211D93
:100D8000206800F063FC226890689169166A2B68FD
:100D9000AF69034340F20330814341EA0721A86869
:100DA000EF6908434FF6FC418843E96840EA0720B1
:100DB000014328692F6A000140EA07300843696847
:100DC0006D6926F0220646EA0515294393602268DC
:100DD000906120680162012084F83D000020BDE799
:100DE00000B585B000210091019102910391006846
:100DF000114988421ED11148C16941F00201C16107
:100E0000C16901F002010491816941F0040181612D
:100E10008069694600F004000490C02000900848F2
:100E2000FFF784FA002211461D20FFF7DBFB1D208F
:100E3000FFF7CAFB05B000BD0004004000100240EF
:100E40000008014010B50446006891B1042904D09F
:100E50000122002100F030FC206801225FF0040133
:100E600000F02AFC2068016841F0010101600020C7
:100E700010BD01220021F3E7704770B504460068F9
:100E800001694FF00005C943890715D4C168C943FA
:100E9000890711D4E91E016101202077206880694B
:100EA0008007204602D0FFF7E7FF04E000F0BCF81F
:100EB000204600F04FF9257720680169C9434907AA
:100EC00017D4C168C943490713D46FF00401016105
:100ED000022020772068806910F4407F204602D0ED
:100EE000FFF7CAFF04E000F09FF8204600F032F957
:100EF000257720680169C943090716D4C168C94329
:100F0000090712D46FF008010161042020772068DE
:100F1000C0698007204602D0FFF7AEFF04E000F072
:100F200083F8204600F016F9257720680169C94347
:100F3000C90617D4C168C943C90613D46FF010019C
:100F40000161082020772068C06910F4407F2046A6
:100F500002D0FFF791FF04E000F066F8204600F0B1
:100F6000F9F8257720680169C943C90708D1C16824
:100F7000C943C90704D1891E0161204600F008F960
:100F800020680169C943090609D4C168C943090633
:100F900005D46FF0800101612046FFF7E5FD206870
:100FA0000169C943490609D4C168C943490605D442
:100FB0006FF040010161204600F0FCF820680169F3
:100FC000C94389060BD4C168C943890607D46FF0A9
:100FD000200101612046BDE87040FFF7C6BD70BD2D
:100FE00000B585B000210091019102910391006844
:100FF000B0F1804F11D10A48816941F0040181614B
:101000008069694600F0040004900C2000900220E2
:10101000019003900348FFF789F905B000BD000077
:101020000010024000080140704770B5044690F877
:101030003C000D4601280DD0012684F83C600220BA
:1010400084F83D0042B1042A18D0082A2AD00C2A7C
:101050004DD139E0022070BD206800F04DFB2068C2
:10106000816941F0080181612068816921F00401F2
:101070008161206881692A69114311E0206800F0CC
:1010800063FB2068816941F40061816120688169A6
:1010900021F480618161206881692A6941EA022125
:1010A000816124E0206800F07BFB2068C16941F089
:1010B0000801C1612068C16921F00401C161206893
:1010C000C1692A69114311E0206800F095FB20688E
:1010D000C16941F40061C1612068C16921F4806186
:1010E000C1612068C1692A6941EA0221C16184F8AD
:1010F0003D60002084F83C0070BD10B5040003D0B2
:1011000094F83D0010B107E0012010BD002084F8E4
:101110003C00204600F00CF8022084F83D00211D20
:10112000206800F093FA012084F83D00002010BDF3
:1011300008B50068B0F1804F08D10548C16941F099
:101140000101C161C06900F00100009008BD00000C
:10115000001002407047000010B5044600680122EC
:1011600000F0AAFA09492068884203D1416C41F491
:10117000004141642068816801F00701062903D01D
:10118000016841F001010160002010BD002C014008
:10119000054900680968884205D1044801210170A9
:1011A00003490968C18070475000002000000020FA
:1011B000240400407047704770B502680446106808
:1011C000D168536910F00F0F50D003F0010501F4FE
:1011D000907635435DD0C20705D0CA0503D5E26BD2
:1011E00042F00102E263420705D5DA0703D0E26B61
:1011F00042F00202E263820705D5DA0703D0E26B10
:1012000042F00402E263020705D5DA0703D0E26B7D
:1012100042F00802E263E26B002A33D0800604D574
:10122000880602D5204600F042FB20684069E16B49
:10123000C0F38010090700D428B3204600F029FB32
:101240002068416949061AD5416921F04001416190
:10125000606BA0B11B494163606BFFF71BF800286E
:1012600010D0606B416BBDE870400847830610D515
:101270008B060ED52046BDE8704000F018BB204616
:10128000FFF799FF70BD2046FFF795FF0020E06350
:1012900070BD030606D50B0604D52046BDE8704098
:1012A00000F0ACBB4006F3D54806F1D5D168204626
:1012B00021F04001D160202184F8391000F0AEF80F
:1012C00070BD00008318000870B5040004D094F8C5
:1012D0003900002510B106E0012070BD84F83850B7
:1012E000204600F023F8242084F839002068C168E3
:1012F00021F40051C160204600F024FB2068016900
:1013000021F4904101612068416921F02A01416185
:101310002068C16841F40051C160E563202084F871
:10132000390084F83A00002070BD000030B585B067
:1013300000240094019402940394006814498842A4
:1013400024D11448816941F480418161816901F4AB
:1013500080410491816941F00401816180690E4DF1
:1013600000F0040004904FF40070009002200190FF
:101370000320039069462846FEF7D8FF2815CDE9DB
:101380000004694628460294FEF7D0FF05B030BD40
:1013900000380140001002400008014090F83A3047
:1013A000202B22D1F9B1F2B190F83830012B1CD0AA
:1013B00081628285C2850021C163222280F83A20A1
:1013C00080F838100168CA6842F48072CA60016807
:1013D0004A6942F001024A610068C16841F0200197
:1013E000C160002070470120704702207047000054
:1013F00010B5084900680968884209D105491E22CC
:1014000040310448FFF7CAFF034901208870487043
:1014100010BD000010010020000000207047FEE712
:1014200010B586B0002412480094019402940394ED
:1014300004940E49059401604721C0E9011440F26B
:10144000E731C0E9031444618461FFF7B0FB4FF456
:101450008050009069460648FFF70BFC049404A9ED
:1014600003480594FFF782FB06B010BD002C014035
:101470005000002010B58AB0002407941C21684653
:101480000894FEF756FE13484FF08041C0E900145F
:1014900040F60F61C0E9024104618461FFF72DFE4F
:1014A000079407A90B480894FFF760FB6020CDE97B
:1014B000000402940822694606480494FFF7B5FD2B
:1014C0000C2269460348FFF7B0FD0248FFF788FD8C
:1014D0000AB010BD9000002010B58CB024216846E1
:1014E000FEF727FE00241348099411490A94C0E925
:1014F00000144FF6FF71C0E90241046184610320CA
:10150000009001AB0220012183E813000F22CDE9F6
:101510000420CDE90614089269460648FFF714FC3A
:10152000099409A903480A94FFF720FB0CB010BDE9
:1015300000040040D0000020FEE7704710B5074CC3
:1015400040F60F60084920820548E0610548FEF733
:1015500039FE0649FEF7F8FD206310BD00000020AB
:101560006F12833ACDCCCCCCCCDE90400000C84288
:1015700070477047FEF7D0BF30B58FB0282168465E
:10158000FEF7D7FD14210AA8FEF7D3FD01210804B8
:10159000CDE900100024029402250491CDE9075002
:1015A0004FF4E01009906846FFF73AF90F20CDE9B3
:1015B0000A056802CDE90C4002210AA80E94FFF743
:1015C00043F80FB030BD00000D48016841F0010143
:1015D000016041680B4A1140416001680A4A1140AC
:1015E0000160016821F480210160416821F4FE015D
:1015F00041604FF41F0181600449C00308607047D7
:10160000001002400000FFF8FFFFF6FE08ED00E0CA
:101610000148FFF732BC0000500000200148FFF7EE
:101620002CBC0000500000200148FFF726BC000041
:10163000500000200148FFF720BC000050000020AF
:101640000148FFF71ABC0000D0000020F0B5026886
:10165000164B174C174D4FF08047984205D0B842B3
:1016600003D0A04201D0A84203D122F070064A68FC
:101670003243984205D0B84203D0A04201D0A842DC
:1016800003D122F44074CA6822434C6922F08002DC
:10169000224302608A68C2620A688262984201D16B
:1016A0000969016301214161F0BD0000002C014086
:1016B000000400400008004010B501F01F030121A4
:1016C000046A99408C430462016A9A4011430162A2
:1016D00010BD10B5846842EA032224F47F440A4313
:1016E0002243826010BD826822F070020A4342F0F9
:1016F000070181607047000030B5026A22F00102E4
:101700000262026A4368846924F073050C682C4302
:1017100022F002058A682A430A4DA8420BD122F022
:101720000805CA6823F440732A434D6922F0040275
:101730001D438B692B4343608461496841630262A6
:1017400030BD0000002C014030B5026A22F01002CA
:101750000262026A436884690D6824F4E64444EA3C
:1017600005248D6822F0200242EA05120B4DA842A2
:101770000ED1CD6822F0800242EA05124D6923F4B1
:10178000406343EA85038D6922F0400243EA850302
:101790004360846149688163026230BD002C01406E
:1017A00030B5026A22F480720262036A4268C46938
:1017B00023F4007324F073050C682C438D6843EA0E
:1017C00005230C4DA8420ED1CD6823F4006343EAF3
:1017D00005234D6922F4405242EA05128D6923F433
:1017E000806342EA05124260C4614968C1630362D2
:1017F00030BD0000002C014030B5026A22F4805256
:101800000262046A4268C3690D6823F4E64343EA4E
:1018100005238D6824F4005444EA0534064DA8429B
:1018200004D14D6922F4804242EA85124260C361CC
:1018300049680164046230BD002C014010B5036AA0
:10184000046A24F001040462846924F0F00444EA88
:10185000021423F00A020A438461026210BD10B52B
:10186000036A23F0100303628369046A23F470435C
:1018700043EA023224F0A00343EA011182610162CB
:1018800010BD10B5406A0021C185C184FFF793FCEB
:1018900010BD0168CA6822F49072CA6001684A6982
:1018A00022F001024A61202180F83A10704710B5F9
:1018B00090F83A10222901D0022010BD8168B1F5BC
:1018C000805F11D00169002901681FD0496801F0CB
:1018D0007F03816A4A1C82620B70C18D491E090414
:1018E000090CC18518D02BE00269816A002A0268C0
:1018F000526805D0D2B20A80816A491C8162ECE745
:10190000C2F308020A80816A891CF7E74A68816A83
:101910004B1C83620A70E0E70168CA6822F020026B
:10192000CA600168CA6822F48072CA6001684A69A4
:1019300022F001024A61202180F83A10FFF758FD99
:10194000002010BD2DE9F041044600680169E268FD
:1019500021F44051114301612169A0680843616984
:1019600008432168CA6841F20C639A430243CA6083
:1019700020684169A26921F44071114341611E4907
:10198000206864253226884202D1FEF703FF01E079
:10199000FEF7F0FE00EBC00101EB001160686FF094
:1019A00018078000B1FBF0F2B2FBF5F2B1FBF0F3E7
:1019B0007A4303EB8202B1FBF0F306EB0212B2FBB7
:1019C000F5F2B3FBF5F302F0F00202EB0312B1FB08
:1019D000F0F3B1FBF0F0B0FBF5F0784303EB8000DF
:1019E00006EB0010B0FBF5F0216800F00F0010448A
:1019F0008860BDE8F08100000038014090F839109F
:101A0000212901D0022070478168B1F5805F016A09
:101A10000BD04A1C0262026809785160C18C491ED1
:101A20000904090CC1840ED017E009880268C1F3CB
:101A30000801516001690029016A02D0491C016254
:101A4000ECE7891CFBE70168CA6822F08002CA60E3
:101A50000068C16841F04001C1600020704700008B
:101A60000148FFF7A9BB000010010020FEE70907AD
:101A7000090E002804DB00F1E02080F80014704714
:101A800000F00F0000F1E02080F8141D704702E024
:101A900008C8121F08C1002AFAD1704770470020F9
:101AA00001E001C1121F002AFBD1704708B5FEF703
:101AB0003BFDFFF761FD2548816941F0200181610F
:101AC000816901F020010091816941F00401816187
:101AD000806900F004000090FFF7CCFCFFF7FCFCED
:101AE000FFF79EFC1B481A490C2201604FF4E131BC
:101AF000416000218160C160C0E904128161C1615F
:101B0000FFF7E2FB002211462520FEF76BFD2520A2
:101B1000FEF75AFD0F491E2240310E48FFF73EFCEA
:101B2000FFF70CFD0B4808218038FFF715FB09482B
:101B30000C218038FFF710FB06480C214038FFF7D6
:101B400081F90448C038FFF783F8FEE7001002402F
:101B500000380140100100200000000000000000DB
:101B60000102030406070809000000000102030443
:101B7000901B000800000020500000008E1A000892
:101B8000E01B000850000020200500009E1A0008FD
:101B90000001000000000000000000000000000044
:101BA0000000000000000000000000000000000035
:101BB0000000000000000000000000000000000025
:101BC0000000000000000000000000000000000015
:101BD0000100000010000000000000000024F400DC
:04000005080000ED02
:00000001FF
