:020000040800F2
:1000000088070020890100082D170008251700081F
:1000100029170008450200084D17000800000000DD
:10002000000000000000000000000000351700087C
:1000300049020008000000003117000839170008C5
:10004000A3010008A3010008A3010008A301000800
:10005000A3010008A3010008A3010008A3010008F0
:100060004D020008A3010008A3010008A301000835
:10007000A3010008A3010008A3010008A3010008D0
:10008000A3010008A3010008A3010008A3010008C0
:10009000A3010008A3010008A3010008A3010008B0
:1000A000A3010008A3010008A3010008A3010008A0
:1000B000A301000841170008A3010008A3010008DC
:1000C000A3010008A3010008A3010008A301000880
:1000D000A3010008A3010008A3010008A301000870
:1000E000A3010008A3010008A301000800F002F822
:1000F00000F03AF80AA090E8000C82448344AAF188
:100100000107DA4501D100F02FF8AFF2090EBAE885
:100110000F0013F0010F18BFFB1A43F0010318473B
:10012000581F0000781F0000103A24BF78C878C11B
:10013000FAD8520724BF30C830C144BF04680C60ED
:10014000704700000023002400250026103A28BF35
:1001500078C1FBD8520728BF30C148BF0B60704739
:100160001FB51FBD10B510BD00F031F81146FFF7E7
:10017000F7FF01F0EDFA00F04FF803B4FFF7F2FFDC
:1001800003BC00F057F800000948804709480047C1
:10019000FEE7FEE7FEE7FEE7FEE7FEE7FEE7FEE737
:1001A000FEE7FEE704480549054A064B7047000094
:1001B0003D170008ED000008880100208807002096
:1001C00088030020880300207047704770477546F9
:1001D00000F02CF8AE4605006946534620F00700B3
:1001E000854618B020B5FFF7DDFFBDE820404FF091
:1001F00000064FF000074FF000084FF0000BAC4630
:10020000ACE8C009ACE8C009ACE8C009ACE8C0097A
:1002100021F007018D46704710B50446AFF300800A
:100220002046BDE81040FFF7A8BF00000048704717
:100230002000002001491820ABBEFEE72600020086
:1002400070470000FEE7000070470000042000F047
:1002500023B8000010B504281DD140F60004C4F2F4
:1002600001042046102100F031F930B940F280003D
:10027000C2F20000816A013181622046102100F043
:1002800025F9012818BF10BD40F28000C2F200001D
:10029000816A0139816210BD40F21441C4F201014A
:1002A0000A68024214BF08607047FFF7D3BF00001E
:1002B0002DE9F04F82B00E68002E00F0038140F26D
:1002C0000C4C41F200424FF6FF7EC4F2010CC4F226
:1002D0000102042700240123C1F2100E4FF0000A8E
:1002E0004FF00009904208BF0327009745E000BF88
:1002F000012704F00C030F229A402BEA020207FAAE
:1003000003F34FEA9A051A4346F82520D1F804B0C2
:1003100040F20045C4F201055FEACB322A6854BFBF
:1003200022EA080242EA08022A606A685FEA8B331E
:1003300054BF22EA080242EA08026A605FEACB235D
:10034000AA6854BF22EA080242EA08025FEA8B2345
:10035000AA60DCF800204FF0010354BF22EA080233
:1003600042EA0802CCF800200E680AF1010A36FAC7
:100370000AF204F1040400F0A58003FA0AF816EA70
:10038000080FF1D04E68764512DC122E56D8DFE801
:1003900006F0350B45495555555555555555555547
:1003A0005555554D510000BFD1F80C9046E000BFA7
:1003B0004FF6FF72C1F2210296420FDC0022C1F219
:1003C000110296421AD00022C1F21202964215D0B2
:1003D0000022C1F22102964210D02FE00022C1F289
:1003E000220296420AD00022C1F23102964205D082
:1003F0000022C1F23202964220D100BF8A684AB17F
:10040000012A14BFC0F81480C0F810804FF008090A
:1004100014E000BF4FF0040910E000BFCA6802F109
:1004200008090BE04FF0000908E000BFCA6802F1BC
:10043000040903E0CA6802F10C0900BF224606461F
:10044000BAF1080F24BF203A043637680F259540CB
:1004500027EA050509FA02F22A433260CA79D20670
:100460007FF582AF41F21803C4F202031A6842F02A
:1004700001021A601A6802F001020192019A40F228
:100480000042C4F20102A2F57E762AF0030256F879
:1004900002B040F60002C4F20102904210D040F6D1
:1004A0000042C4F2010290423FF422AF41F2000246
:1004B000C4F20102009F904208BF022719E700BF63
:1004C000002716E702B0BDE8F08F00008068084002
:1004D00018BF01207047000040F28010C2F20000F7
:1004E0000068704740F2100040F28011C2F2000034
:1004F000C2F2000100780A681044086070470000EA
:1005000080B542F20000C4F20200016841F010011F
:100510000160032000F08EF80F2000F005F800F0D5
:1005200027F8002080BD000070B540F21006C2F22E
:10053000000640F218013278C2F200014FF47A73DB
:100540000968B3FBF2F20446B1FBF2F1084600F091
:1005500063FB0F2C4FF0010508D838B94FF0FF307E
:1005600021460022002500F039F87460284670BD4D
:1005700082B041F21800C4F202000168022241F088
:1005800001010160016801F00101019101994168D7
:1005900041F080514160406800F080500090009828
:1005A0000420C4F20100016862F31A61016002B024
:1005B00070470000002848BF7047C1B200F01F001C
:1005C000012202FA00F04EF20012CEF2000242EADC
:1005D000D10121F0030108607047000010B54EF60C
:1005E0000C5CCEF2000CDCF80030C3F3022E8EF06F
:1005F0000704042C28BF0424BEF103034FF0FF3E80
:100600000EFA04F438BF0023A14399400EFA03F315
:100610009A43114300F00F0200F160430901043ACC
:1006200003F564436244002848BF02F10C031970CB
:1006300010BD00004EF60C51CEF200010A684FF6D4
:10064000FF031A4060F30A2242F0806040F0FD7020
:10065000086070472DE9F04381B0002800F08580E4
:1006600042F20008C4F202080446D8F800000D4621
:1006700000F0070088420CD2D8F8000020F00700F4
:100680002843C8F80000D8F8000000F00700A8428E
:100690006BD1206841F204098107C4F2020917D521
:1006A000410705D5D9F8001041F4E061C9F8001000
:1006B000010705D5D9F8001041F46051C9F80010C0
:1006C000D9F80010A26821F0F0011143C9F8001018
:1006D000C00741D1D8F8000000F00700A8420CD9AB
:1006E000D8F8000020F007002843C8F80000D8F828
:1006F000000000F00700A84237D12068410707D565
:10070000D9F80010E26821F4E0611143C9F8001043
:10071000000708D5D9F80000216920F4605040EAAC
:10072000C100C9F80000D9F8002002F00C00082828
:1007300041F20020C0F27A0050D142F26803C2F3C5
:100740008341C0F60003595CD2033BD440F600104D
:10075000C0F23D00484341E0606802280AD0012809
:100760002AD159F8041C890308D4012001B0BDE83E
:10077000F08300BF59F8041C8901F6D5D9F80010A0
:1007800021F003010843C9F80000FFF7A5FE064663
:1007900041F28837D9F80000616800F00C00B0EB36
:1007A000810F97D0FFF798FE801BB842F2D9032043
:1007B00001B0BDE8F08300BF59F8041C8907D4D507
:1007C000DCE700BFD9F8002042F24E03C2F34042FA
:1007D000C0F600039A5C4843B0FBF2F0D9F8001071
:1007E00042F25002C1F30311C0F60002515C40F224
:1007F000180220FA01F140F21400C2F20000006871
:10080000C2F200021160FFF78FFE002001B0BDE8C8
:10081000F083000040F2180041F20401C2F200002F
:10082000C4F202010068096842F26002C1F30221C9
:10083000C0F60002515CC8407047000040F218004A
:1008400041F20401C2F20000C4F20201006809682A
:1008500042F26002C1F3C221C0F60002515CC840FE
:10086000704700002DE9F04182B0002868D00446AE
:10087000007841F20006C007C4F2020625D0706875
:1008800000F00C0004281BD0706800F00C00082851
:1008900002D17068C00313D46068002800F068813A
:1008A000B0F5A02F00F07C81B0F5803F00F07C8196
:1008B000306820F480303060306820F4802076E1A9
:1008C0003068800301D56068D0B32078800718D5E0
:1008D000706810F00C0F07D0706800F00C0008284A
:1008E0006ED17068C0036BD43068800702D5206970
:1008F000012825D13068616920F0F80040EAC10084
:100900003060207800071FD42078400732D4E56992
:1009100095B1706800F00C00082840F08F80012D20
:100920000ED07068216A00F480328A4208D1616A70
:1009300000F47010884203D1002002B0BDE8F081BD
:10094000012002B0BDE8F081A069002862D000203B
:10095000C4F242200121C0F88014FFF7BDFD054616
:10096000706A800700F18C80FFF7B6FD401B0228FB
:10097000F6D92AE1F06910F0805808D1F06940F00A
:100980008050F061F06900F080500090009847F2CC
:100990000007C4F200073868C00529D4386840F45D
:1009A00080703860FFF798FD054600BF3868C005C5
:1009B0001ED4FFF791FD401B6428F7D905E100BF65
:1009C0002069002840F20000C4F2422000F082803A
:1009D00001210160FFF780FD054600BF30688007F8
:1009E0003FF588AFFFF778FD401B0228F6D9ECE011
:1009F000E068002800F08080052800F0978001283A
:100A000000F09880306A20F001003062306A20F0F7
:100A1000040092E00020C4F242200021C0F88014BB
:100A2000FFF75AFD054600BF706A80077FF56CAF7F
:100A3000FFF752FD401B0228F6D9C6E00027C4F29A
:100A4000422700203866FFF747FD022D05460BD1EF
:100A50003068800140F1BE80FFF73EFD401B022858
:100A60004FF00300F4D968E7306880017FF564AF88
:100A7000FFF732FD401B02284FF00300F4D95CE77A
:100A800040F21800C2F20000006844F6D351C1F2EF
:100A90006201A0FB0101480A019000BF00BF01985C
:100AA000411E002801913FF42FAF00BF0198411E65
:100AB000002801913FF428AF00BF0198411E002893
:100AC00001913FF421AF00BF0198411E0028019120
:100AD000E4D119E700210160FFF7FEFC054600BFE5
:100AE000306880077FF50DAFFFF7F6FC401B02284A
:100AF0004FF00300F4D920E7306A20F001003062A3
:100B0000306A20F004003062FFF7E6FC054641F24F
:100B1000883700BF306A800720D5FFF7DDFC401B17
:100B2000B8424FF00300F5D907E700BF306A40F044
:100B300004003062306A40F001003062FFF7CCFC04
:100B4000054641F2883700BF306A800706D4FFF7B8
:100B5000C3FC401BB842F7D937E000BFB8F1000F23
:100B60007FF4D5AEF06920F08050F061CFE600BF91
:100B7000306820F480303060306820F480203060AD
:100B8000FFF7AAFC054600BF306880037FF59DAEE5
:100B9000FFF7A2FC401B64284FF00300F4D9CCE619
:100BA000306840F480203060306840F4803030603D
:100BB000FFF792FC054600BF306880033FF585AE25
:100BC000FFF78AFC401B6428F6D9032002B0BDE879
:100BD000F08100BF206AB0F5803F05D17168A2683E
:100BE00021F40031114371607168626A21F474115B
:100BF00011430843706001203866FFF76DFC04461E
:100C0000306880013FF598AEFFF766FC001B0228B4
:100C10004FF00300F4D990E6411E0020B0EB116FB5
:100C20001CBF012070474EF21002CEF2000251604C
:100C30004EF62351CEF20001F0230B700721906095
:100C400011607047704700007047000010B590F8C1
:100C50003C20012A4FF0020233D080F83D20026888
:100C6000D2F804E0D2F808C00C682EF070032343D9
:100C700040F2FF74C4F20004A24253600ADCB2F1F5
:100C8000804F13D040F20043C4F200039A420DD0CB
:100C900011E000BF42F60043C4F201039A4205D0BE
:100CA00040F60003C4F200039A4204D149682CF0D4
:100CB0008003194391600121002280F83D1080F8E3
:100CC0003C20104610BD0000002804BF01207047E2
:100CD00010B5044690F83D0028B9002084F83C0087
:100CE000204600F067F8022084F83D00206840F2BA
:100CF000FF730268C4F2000342F6004C9842C4F24B
:100D0000010C15DCB0F1804F1AD040F20041C4F262
:100D10000001884214D0984218DCB0F1804F1DD0F9
:100D200040F20041C4F20001884217D01AE000BF2F
:100D3000604505D040F60001C4F200018842EAD1C6
:100D4000A16822F070020A439842E6DD604505D0B2
:100D500040F60001C4F20001884203D1216922F467
:100D600040720A43A36922F08001D4F804E0E268EB
:100D7000194360450160C262C0F828E002D1616990
:100D8000CCF8301001214161002084F8461084F82D
:100D90003E1084F83F1084F8401084F8411084F825
:100DA000421084F8431084F8441084F8451084F805
:100DB0003D1010BD80B582B0006840F20041C4F221
:100DC0000001884212D0B0F1804F0CD141F21C00DA
:100DD000C4F20200016841F001010160006800F006
:100DE00001000190019802B080BD00BF41F21C00DB
:100DF000C4F202000168002241F0020101600068B3
:100E0000002100F00200009000981D20FFF7E6FB93
:100E10001D2002B0BDE88040FFF7CCBB90F83D102C
:100E200001291CBF01207047022180F83D10006895
:100E300040F2FF72C168C4F20002904241F0010129
:100E4000C16009DCB0F1804F12D040F20041C4F221
:100E5000000188420CD012E042F60041C4F20101C8
:100E6000884205D040F60001C4F20001884206D154
:100E7000816801F00701062904BF0020704701685E
:100E800041F00101016000207047000080B590F83A
:100E90003C20012A4FF0020200F0BF8080F83D2084
:100EA000D0F800C04FF67772DCF8083023EA02026F
:100EB000CCF808200B683F2B1CDD5F2B20DD602B5E
:100EC00050D0B3F5005F6DD0702B40F0A080D1E919
:100ED00001E3C968DCF8082043EA0E0322F47F42EC
:100EE00043EA01211143CCF80810DCF8081041F066
:100EF00077018AE01F2B29DC63B3102B2AD086E010
:100F0000402B63D0502B40F08280D1F804E0C968B8
:100F1000DCF82030DCF8202022F00102CCF8202080
:100F2000DCF8182022F0F00242EA011123F00A0254
:100F300042EA0E02CCF81810CCF82020DCF8081099
:100F400041F0570121F020015FE000BF202B01D0CC
:100F5000302B5CD1DCF8081021F07001194341F00E
:100F6000070152E0D1F804E0C968DCF8203023F032
:100F70001003CCF82030DCF81830DCF8202023F403
:100F8000704322F0A00243EA013142EA0E12CCF88B
:100F90001810CCF82020DCF8081041F0670121F08F
:100FA000100132E0D1E901E3C968DCF8082043EA26
:100FB0000E0322F47F4243EA01211143CCF80810CA
:100FC000DCF8081041F480411FE000BFD1F804E0D4
:100FD000C968DCF82030DCF8202022F00102CCF8CF
:100FE0002020DCF8182022F0F00242EA011123F060
:100FF0000A0242EA0E02CCF81810CCF82020DCF8E5
:10100000081041F0470121F03001CCF8081001210F
:10101000002280F83D1080F83C20104680BD000082
:101020007047000010B5016804460869800744BF96
:10103000C8685FEA807039D40869400744BFC8684F
:101040005FEA40703ED40869000744BFC8685FEAA1
:10105000007045D40869C00644BFC8685FEAC06034
:101060004AD40869C0071CBFC8685FEAC07051D184
:101070000869000644BFC8685FEA006052D4086986
:10108000400644BFC8685FEA406053D408698006E0
:1010900046BFC8685FEA806010BD6FF0200220463E
:1010A0000A61BDE81040FFF7CFBD00BF6FF002003E
:1010B0000861012020778869800743D02046FFF728
:1010C000AFFF45E06FF004000861022020778869D7
:1010D00010F4407F40D02046FFF7A2FF42E000BF5F
:1010E0006FF00800086104202077C86980073DD0B0
:1010F0002046FFF795FF3FE06FF0100008610820E1
:101100002077C86910F4407F3AD02046FFF788FF67
:101110003CE000BF6FF001000861204600F04AFA91
:101120002168A5E76FF0800008612046FFF78AFD7F
:101130002168A4E76FF040000861204600F042FA01
:101140002168A3E7204600F04BF8204600F0C0F9E4
:101150002168002020776FE7204600F041F8204604
:1011600000F0B6F92168002020776CE7204600F0F7
:1011700037F8204600F0ACF921680020207769E7B5
:10118000204600F02DF8204600F0A2F9216800204A
:10119000207766E780B586B000680021B0F1804F07
:1011A000049101D006B080BD41F21800C4F20200E3
:1011B000016841F004010160006802A900F0040028
:1011C000019001980320029002200390059040F6C0
:1011D0000000C4F20100FFF76BF806B080BD00000C
:1011E000704700002DE9F04390F83C30012B04BF1C
:1011F0000220BDE8F0834FEAB202032A00F2E98040
:10120000DFE802F0023A78B4036842F600461A6A50
:10121000C4F2010622F001021A621D6A1A465C68D5
:1012200052F818CFB3428E68D1F800E025F00205DD
:1012300045EA06050CD1CE68D1E9057824F440745E
:1012400025F00C0526F004063C43354344EA080427
:101250002CF0730747EA0E075C609F614F680969CD
:101260005F631D629F6947F008079F619F6927F0D0
:1012700004079F61AAE000BF036842F600461A6AAD
:10128000C4F2010622F010021A621D6A1A46D3F84F
:1012900004C052F8184FB3428E68D1F800E025F030
:1012A000200545EA061510D1CE68D1E9058725F05D
:1012B000C0096FF0400505EA06152CF4406647EAC0
:1012C000080745EA090546EA870C24F4E64444EA9F
:1012D0000E27C3F804C09F614F6809699F631D62B0
:1012E0009F6947F400679F619F6927F480679F614A
:1012F0006BE000BF036842F600461A6AC4F20106BA
:1013000022F480721A621D6A1A46D3F804C052F899
:101310001CEFB3428E680C6825F4007545EA06257B
:1013200011D1CE68D1E9058725F44069360240F233
:10133000FF4526EA05052CF4405647EA080745EA2A
:10134000090546EA071C2EF073072743C3F804C0BB
:10135000DF614F680969DF631D62DF6947F00807D5
:10136000DF61DF6927F00407DF612FE0036842F6E1
:1013700000471A6AC4F2010722F480521A621A4620
:10138000D3F820C05D6852F81C4FD1F800E08E6899
:10139000BB4204D14F6925F4804545EA87152CF4FA
:1013A000005747EA063724F4E64646EA0E265D6013
:1013B000DE614E6809691E641F62DF6947F40067D9
:1013C000DF61DF6927F48067DF6109021368194371
:1013D0001160002180F83C100846BDE8F083000051
:1013E000002804BF0120704710B5044690F83D0066
:1013F00028B9002084F83C00204600F067F802205D
:1014000084F83D00206840F2FF730268C4F20003D4
:1014100042F6004C9842C4F2010C15DCB0F1804F4A
:101420001AD040F20041C4F20001884214D0984220
:1014300018DCB0F1804F1DD040F20041C4F2000131
:10144000884217D01AE000BF604505D040F6000181
:10145000C4F200018842EAD1A16822F070020A4376
:101460009842E6DD604505D040F60001C4F2000177
:10147000884203D1216922F440720A43A36922F011
:101480008001D4F804E0E268194360450160C2625B
:10149000C0F828E002D16169CCF830100121416127
:1014A000002084F8461084F83E1084F83F1084F839
:1014B000401084F8411084F8421084F8431084F8F6
:1014C000441084F8451084F83D1010BD70470000AA
:1014D0007047000041B1082910D0042914BF00F161
:1014E000410200F13F020BE090F83E20012A1CBFB0
:1014F00001207047022280F83E2013E000F14002F4
:101500001278012A1CBF012070470222082907D047
:10151000042914BF80F8412080F83F2002E000BF7A
:1015200080F84020006801F01F010122036A8A4010
:1015300023EA02010162036A42F64441C4F2010156
:101540001A43A1F14403984202620FD040F2FF71A6
:10155000C4F20001884213DCB0F1804F1CD040F28D
:101560000041C4F20001884216D01CE00A6842F42F
:1015700000420A6040F2FF71C4F200018842EBDDD4
:1015800042F60041C4F20101884205D040F6000154
:10159000C4F20001884206D1816801F007010629E2
:1015A00004BF00207047016841F001010160002084
:1015B0007047000040F28000C2F20000416A0A3128
:1015C0004162704770470000002804BF0120704747
:1015D00010B5044690F83D0028B9002084F83C007E
:1015E000204600F061F8242084F83D002068D4E90A
:1015F0000212C36823F40053C360036923F4405309
:101600001A430261D4E904231143C268194341F229
:101610000C639A431143C1604169A26921F440718E
:10162000114343F60002C4F201029042416103D02B
:10163000FFF7F0F802E000BFFFF700F96268192138
:1016400048439100B0FBF1F048F21F51C5F2EB1195
:10165000A0FB01235A094FF69C73C0F6FF7302FBEF
:101660000300322303EB0010A0FB0101F02303EA87
:101670005113206803EB0212C1F34311114481603E
:10168000016921F490410161416921F02A01416120
:10169000C16841F40051C16000202021206484F819
:1016A0003D1084F83E1010BD70B586B040F60004C1
:1016B000C4F20104006804F54051002688420496F3
:1016C00002D006B070BD00BF41F21800C4F20200A3
:1016D000016802AD41F480410160016801F480417C
:1016E00001910199016841F00401016000682946F7
:1016F00000F00400019001984FF400700290022065
:101700000390032005902046FEF7D2FD4FF4806041
:10171000CDE90206204629460496FEF7C9FD06B02B
:1017200070BD0000FEE70000FEE70000FEE70000DD
:101730007047000070470000FEF7D4BE70470000FD
:1017400040F23810C2F20000FFF76CBCFEE7000068
:1017500096B0FEF7D5FE00240120CDE90F44CDE977
:101760000D440A900E904FF4E0104FF480310225A2
:1017700013900AA8CDE90B14CDE91151FFF772F8C7
:1017800020B1EFF3108072B6FEE700BF0F20CDE965
:1017900004054FF48060CDE9070404A802210694F3
:1017A000FEF758FF20B1EFF3108072B6FEE700BFDE
:1017B000002641F218000D96C4F20200016840F6BE
:1017C000000441F0200101600168C4F2010401F04D
:1017D00020010491049901680AAD41F004010160FF
:1017E0000068012700F004000490049804200A9087
:1017F0000020C1F211000B90204629460C97FEF7FD
:1018000057FD10200AA9C1C120462946FEF750FD08
:10181000082000210022FEF7E1FE0820FEF7CAFEA4
:1018200040F2F000C2F200004FF0804163230796BF
:10183000CDE90566CDE91466CDE90F66CDE90D6603
:10184000472280E84600C0E903368661FFF73CFA8C
:1018500020B1EFF3108072B6FEE700BF4FF4805066
:10186000049040F2F000C2F2000004A9FFF70EFB62
:1018700020B1EFF3108072B6FEE700BF40F2F00037
:10188000C2F20000FFF7ACFD20B1EFF3108072B69A
:10189000FEE700BF40F2F000C2F2000014A9FFF71B
:1018A000D5F928B1EFF3108072B600BFFEE700BF94
:1018B00060200A900020CDE90B000E9040F2F0006D
:1018C000C2F200000AA90022FFF78CFC20B1EFF35E
:1018D000108072B6FEE700BF40F2F000C2F20000D6
:1018E0000AA90422FFF77EFC20B1EFF3108072B644
:1018F000FEE700BF40F2F006C2F200063046FFF7F6
:1019000049FC40F28009C2F2000904F54051484602
:1019100040F82C1F4FF4165100250C22C0E9011588
:10192000C0E90355C0E90525C561FFF74DFE28B1A3
:10193000EFF3108072B600BFFEE700BF40F2381030
:10194000A4F58231C2F200000A230D95CDE90B55B2
:10195000CDE90455482280E82600C0E903358561B9
:10196000FFF7B2F920B1EFF3108072B6FEE700BFC7
:101970004FF480500A9040F23810C2F200000AA9D9
:10198000FFF784FA20B1EFF3108072B6FEE700BFD4
:1019900040F23810C2F2000004A9FFF757F918B15D
:1019A000EFF3108072B6FEE730460021FFF792FD9C
:1019B00030460421FFF78EFD40F23810C2F20000DD
:1019C000FFF72CFA40F20000C2F20000416890F8E4
:1019D00000B003918168C068D9E902570190D9F835
:1019E000148030680291009017E000BF4FF6FF713D
:1019F0004042A9F8021080B23221322828BF08469E
:101A00000146DA4518BF0A210A2828BF0146009A74
:101A10000020A9F8041050639163D9F824004446CB
:101A20002E4600F0BFF921468046C9F8100000F0AC
:101A300099FA42F20041C4F6741100F0BDF8C9E908
:101A40000580D9F828A00446ABEB0A0000F092F913
:101A500031460546C9F81C0000F084FA214600F022
:101A6000ABF80646C9F820002846214600F0AEF93A
:101A7000394600F03FF801990746C9F80C00304696
:101A800000F0A4F904460398294600F09FF9214686
:101A900000F030F804460298394600F097F92146E4
:101AA00000F028F800F04AF90028A9F80000C9F869
:101AB00008509BD416D00121A9F8021080B232211F
:101AC000322828BF08460146DA4518BF0A210A28ED
:101AD00028BF0146009A0020A9F8041051639063C2
:101AE0009BE700BF00990020C9F8020048638863A3
:101AF00093E7000090EA010F48BF81F0004100F138
:101B00003882421A3CBF801A89184FEAD052A2EBA1
:101B1000D1534FF07F4C1CEA410F18BF9CEA026F73
:101B200000F03B804FF0004C4CEA00204CEA0121D1
:101B300021FA03FC10EB0C0C1ED202F1FF325FEA1B
:101B40001C2040EBC25038BF70471CF07F0F4FEA9B
:101B5000400C18BFBCF17F4F38BF7047C3F1200362
:101B6000994008BF20F00100BCF17F4F38BF70479B
:101B7000A0F1C04000F0F1B94FEA3C00000A40EB90
:101B8000C25028BF1CF0FF0F4FEA400CE6D018BF30
:101B9000BCF17F4F38BF7047EAE79CEA026F05D07F
:101BA00010EA5C0F08BF00F00040704710B500F06D
:101BB0008EF900BF64FBBE3E4FF47F0C1CEAD012CE
:101BC0001EBF1CEAD11392EA0C0F93EA0C0F00F02F
:101BD000858090EA010F48BF42F4807240F4000C07
:101BE00041F400002CF07F4120F07F4000B5A2EBD3
:101BF000030281420FF2081CACEB504E9EF800E04D
:101C0000C0F100004FEA4E0E00FB0EFC38BF490049
:101C10004FEA2C1C0CFB0EF34FEACE1E0EEB635E5C
:101C20004FEA112C0EFB0CFC4FEAC1214FEA1C536A
:101C300000FB031102F5FA024FEA112C0EFB0CFC1B
:101C40004FEA01314FEADC4C00FB0C1142EB22421F
:101C5000C14228BF09184CEB03335DF804EB10EBCD
:101C6000410143EBC250B2F57C0F38BF704729D514
:101C700012F0F00F1CBF00F1C04000F000407047B0
:101C8000008182838485868788898B8C8D8E8F9155
:101C90009293959697999A9C9D9FA0A2A3A5A7A879
:101CA000AAACAEB0B2B3B5B7B9BCBEC0C2C5C7C9A5
:101CB000CCCED1D4D7D9DCDFE2E6E9ECF0F3F7FA09
:101CC000FE0000004FEA400C0CF1807CBCF17E4F1E
:101CD00028BF7047B0F1C04000F03FB90CEAD11303
:101CE00090EA010F48BF42F48072624538BF6345F5
:101CF00007D213F47F0F16D080EA010000F00040F5
:101D0000704710B500F0E3F8097EFC3E00F005B81E
:101D100080EA010000F00040704780EA010000F016
:101D2000004000F01AB912F47F0F04BF0248704758
:101D300080EA010000F011B90000C07F41000B0EE5
:101D4000D3F19E0208D950F400034FEA032323FA8B
:101D500002F048BF4042704710B500F0B8F800BF2D
:101D600049922480002070476FF0004282EA2000F0
:101D70007047000010F0004148BF4042B0FA80F3C5
:101D800010FA03F2C3F19D030BD051EAC35101EBEA
:101D90001220530638BF704700F1010008BF20F041
:101DA00001007047B0FA80F310FA03F2C3F19D030B
:101DB0000AD0D90501EB1220530638BF704700F155
:101DC000010008BF20F00100704700004FF47F0CB5
:101DD0001CEAD0121EBF1CEAD11392EA0C0F93EA40
:101DE0000C0F00F0478090EA010F48BF42F4807268
:101DF0004FF0004C4CEA00204CEA012102EB0302B8
:101E0000A0FB0113A2F50002002918BF43F0010353
:101E10005B0028BF4FEA330342EB22425FEA132CF8
:101E20004CEBC2502EBFBCEB436FB2F57C0F70473A
:101E30004FEA036CBCF1004F08BF20F00100B2F57F
:101E40007C0F38BF70470BD582F0FF0212F5803F40
:101E5000C8BF704700F1C040D8BF00F000407047D5
:101E600000F5000C5FEA4C0C48BF7047B0F1C04071
:101E700000F073B80CEAD11390EA010F48BF42F4A6
:101E80008072624538BF634504D280EA010000F0E9
:101E90000040704710B500F01AF800BF8900013EFD
:101EA00000F007B800F009B85FEA410C5FEA1C6C6B
:101EB00008D080EA010000F050B85FEA400C5FEA09
:101EC0001C6CF6D14FF00040A0F5800070470EF179
:101ED000020E2EF0030E5EF8044B244204D44FEAA7
:101EE0004102B2F17F4F11D84FEA4003B3F17F4F67
:101EF0000CD80ED14FEAD07C0CEB4C0C0CF1020C40
:101F0000B2F17F4F08BF4CEBD17C04E04FF0080CDE
:101F100001E04FEAD17C0CEB4C0324FA03F404F00B
:101F20000704B4F1040C06D20EEB840CBDE810409B
:101F30004CF0010C6047DFE80CF0070802024FF09C
:101F40000040A0F5800010BD0846420018BFD2F145
:101F5000807288BF00F0004010BDFF2141EAD050E0
:101F6000C005704790EA010F48BF81F000413FF57E
:101F7000C8AD421A04D882F00042A0EB020011441E
:101F80004FEAD052A2EBD1534FF07F4C1CEA410FE5
:101F900018BF9CEA026F4AD04FF0004C4CEA002078
:101FA0004CEA012121FA03FCB0EB0C0C0FD412F027
:101FB000FE0F36D05FEA4C001DD5001240EBC25038
:101FC00038BF70471CF03F0F18BF70470BE05FEA47
:101FD0001C20A2F1010240EBC25038BF70471CF038
:101FE0007F0F18BF7047C3F12003994014BF401EF4
:101FF00020F0010070474FEA1223800808BF7047A5
:10200000B0FA80FCA2EB0C02CCF1280C60FA0CF0C8
:1020100093EA122F04BF00EBC25070474FEAC3701F
:102020007047130A5FEADC1008BF7047F6E79CEAC6
:10203000026F04D010EA5C0F08BF0020704710B593
:10204000FFF745FF40DFF63E81F000407047010298
:102050000000000000000000010203040607080958
:10206000000000000102030402030405060708093A
:102070000A0B0C0D0E0F1010982000080000002015
:102080002000000028010008B820000820000020DF
:102090006807000044010008640000000AD7A33F5D
:1020A00017B751380AD7233C010000001000000088
:0820B0000024F4000000000010
:04000005080000ED02
:00000001FF
